{
  "contractName": "SimpleVoting",
  "abi": [
    {
      "inputs": [],
      "payable": false,
      "stateMutability": "nonpayable",
      "type": "constructor"
    },
    {
      "anonymous": false,
      "inputs": [
        {
          "indexed": false,
          "internalType": "uint256",
          "name": "proposalId",
          "type": "uint256"
        }
      ],
      "name": "ProposalRegisteredEvent",
      "type": "event"
    },
    {
      "anonymous": false,
      "inputs": [],
      "name": "ProposalsRegistrationEndedEvent",
      "type": "event"
    },
    {
      "anonymous": false,
      "inputs": [],
      "name": "ProposalsRegistrationStartedEvent",
      "type": "event"
    },
    {
      "anonymous": false,
      "inputs": [
        {
          "indexed": false,
          "internalType": "address",
          "name": "voter",
          "type": "address"
        },
        {
          "indexed": false,
          "internalType": "uint256",
          "name": "proposalId",
          "type": "uint256"
        }
      ],
      "name": "VotedEvent",
      "type": "event"
    },
    {
      "anonymous": false,
      "inputs": [
        {
          "indexed": false,
          "internalType": "address",
          "name": "voterAddress",
          "type": "address"
        }
      ],
      "name": "VoterRegisteredEvent",
      "type": "event"
    },
    {
      "anonymous": false,
      "inputs": [],
      "name": "VotesTalliedEvent",
      "type": "event"
    },
    {
      "anonymous": false,
      "inputs": [],
      "name": "VotingSessionEndedEvent",
      "type": "event"
    },
    {
      "anonymous": false,
      "inputs": [],
      "name": "VotingSessionStartedEvent",
      "type": "event"
    },
    {
      "anonymous": false,
      "inputs": [
        {
          "indexed": false,
          "internalType": "enum SimpleVoting.WorkflowStatus",
          "name": "previousStatus",
          "type": "uint8"
        },
        {
          "indexed": false,
          "internalType": "enum SimpleVoting.WorkflowStatus",
          "name": "newStatus",
          "type": "uint8"
        }
      ],
      "name": "WorkflowStatusChangeEvent",
      "type": "event"
    },
    {
      "constant": true,
      "inputs": [],
      "name": "administrator",
      "outputs": [
        {
          "internalType": "address",
          "name": "",
          "type": "address"
        }
      ],
      "payable": false,
      "stateMutability": "view",
      "type": "function"
    },
    {
      "constant": true,
      "inputs": [
        {
          "internalType": "uint256",
          "name": "",
          "type": "uint256"
        }
      ],
      "name": "proposals",
      "outputs": [
        {
          "internalType": "string",
          "name": "description",
          "type": "string"
        },
        {
          "internalType": "uint256",
          "name": "voteCount",
          "type": "uint256"
        }
      ],
      "payable": false,
      "stateMutability": "view",
      "type": "function"
    },
    {
      "constant": true,
      "inputs": [
        {
          "internalType": "address",
          "name": "",
          "type": "address"
        }
      ],
      "name": "voters",
      "outputs": [
        {
          "internalType": "bool",
          "name": "isRegistered",
          "type": "bool"
        },
        {
          "internalType": "bool",
          "name": "hasVoted",
          "type": "bool"
        },
        {
          "internalType": "uint256",
          "name": "votedProposalId",
          "type": "uint256"
        }
      ],
      "payable": false,
      "stateMutability": "view",
      "type": "function"
    },
    {
      "constant": true,
      "inputs": [],
      "name": "workflowStatus",
      "outputs": [
        {
          "internalType": "enum SimpleVoting.WorkflowStatus",
          "name": "",
          "type": "uint8"
        }
      ],
      "payable": false,
      "stateMutability": "view",
      "type": "function"
    },
    {
      "constant": false,
      "inputs": [
        {
          "internalType": "address",
          "name": "_voterAddress",
          "type": "address"
        }
      ],
      "name": "registerVoter",
      "outputs": [],
      "payable": false,
      "stateMutability": "nonpayable",
      "type": "function"
    },
    {
      "constant": false,
      "inputs": [],
      "name": "startProposalRegistration",
      "outputs": [],
      "payable": false,
      "stateMutability": "nonpayable",
      "type": "function"
    },
    {
      "constant": false,
      "inputs": [],
      "name": "endProposalRegistration",
      "outputs": [],
      "payable": false,
      "stateMutability": "nonpayable",
      "type": "function"
    },
    {
      "constant": false,
      "inputs": [
        {
          "internalType": "string",
          "name": "proposalDescription",
          "type": "string"
        }
      ],
      "name": "registerProposal",
      "outputs": [],
      "payable": false,
      "stateMutability": "nonpayable",
      "type": "function"
    },
    {
      "constant": false,
      "inputs": [
        {
          "internalType": "uint256",
          "name": "proposalId",
          "type": "uint256"
        }
      ],
      "name": "vote",
      "outputs": [],
      "payable": false,
      "stateMutability": "nonpayable",
      "type": "function"
    },
    {
      "constant": false,
      "inputs": [],
      "name": "tallyVotes",
      "outputs": [],
      "payable": false,
      "stateMutability": "nonpayable",
      "type": "function"
    },
    {
      "constant": true,
      "inputs": [],
      "name": "getProposalNumber",
      "outputs": [
        {
          "internalType": "uint256",
          "name": "",
          "type": "uint256"
        }
      ],
      "payable": false,
      "stateMutability": "view",
      "type": "function"
    },
    {
      "constant": true,
      "inputs": [
        {
          "internalType": "uint256",
          "name": "index",
          "type": "uint256"
        }
      ],
      "name": "getProposalDescription",
      "outputs": [
        {
          "internalType": "string",
          "name": "",
          "type": "string"
        }
      ],
      "payable": false,
      "stateMutability": "view",
      "type": "function"
    },
    {
      "constant": true,
      "inputs": [],
      "name": "getWinningProposalId",
      "outputs": [
        {
          "internalType": "uint256",
          "name": "",
          "type": "uint256"
        }
      ],
      "payable": false,
      "stateMutability": "view",
      "type": "function"
    },
    {
      "constant": true,
      "inputs": [],
      "name": "getWinningProposalDescription",
      "outputs": [
        {
          "internalType": "string",
          "name": "",
          "type": "string"
        }
      ],
      "payable": false,
      "stateMutability": "view",
      "type": "function"
    },
    {
      "constant": true,
      "inputs": [],
      "name": "getWinningProposalVoteCounts",
      "outputs": [
        {
          "internalType": "uint256",
          "name": "",
          "type": "uint256"
        }
      ],
      "payable": false,
      "stateMutability": "view",
      "type": "function"
    },
    {
      "constant": true,
      "inputs": [
        {
          "internalType": "address",
          "name": "_voterAddress",
          "type": "address"
        }
      ],
      "name": "isRegisteredVoter",
      "outputs": [
        {
          "internalType": "bool",
          "name": "",
          "type": "bool"
        }
      ],
      "payable": false,
      "stateMutability": "view",
      "type": "function"
    },
    {
      "constant": true,
      "inputs": [
        {
          "internalType": "address",
          "name": "_address",
          "type": "address"
        }
      ],
      "name": "isAdministrator",
      "outputs": [
        {
          "internalType": "bool",
          "name": "",
          "type": "bool"
        }
      ],
      "payable": false,
      "stateMutability": "view",
      "type": "function"
    },
    {
      "constant": true,
      "inputs": [],
      "name": "getWorkflowStatus",
      "outputs": [
        {
          "internalType": "enum SimpleVoting.WorkflowStatus",
          "name": "",
          "type": "uint8"
        }
      ],
      "payable": false,
      "stateMutability": "view",
      "type": "function"
    }
  ],
  "bytecode": "0x608060405234801561001057600080fd5b50336000806101000a81548173ffffffffffffffffffffffffffffffffffffffff021916908373ffffffffffffffffffffffffffffffffffffffff16021790555060008060146101000a81548160ff0219169083600581111561006f57fe5b0217905550611bce806100836000396000f3fe608060405234801561001057600080fd5b50600436106101165760003560e01c806337d05ddc116100a2578063da36cffe11610071578063da36cffe14610566578063e81e977b146105c2578063e85a8f2a146105e0578063f53d0a8e146105ea578063f75d64a61461063457610116565b806337d05ddc1461040557806338db6dd314610488578063a1edffa2146104cc578063a3ec138d146104f857610116565b80631af86909116100e95780631af869091461025d578063202890771461027b578063229acb17146102995780632f95355b14610340578063378a2178146103fb57610116565b80630121b93f1461011b578063013cf08b146101495780630a2eb301146101f75780630f7e283814610253575b600080fd5b6101476004803603602081101561013157600080fd5b8101908080359060200190929190505050610660565b005b6101756004803603602081101561015f57600080fd5b8101908080359060200190929190505050610982565b6040518080602001838152602001828103825284818151815260200191508051906020019080838360005b838110156101bb5780820151818401526020810190506101a0565b50505050905090810190601f1680156101e85780820380516001836020036101000a031916815260200191505b50935050505060405180910390f35b6102396004803603602081101561020d57600080fd5b81019080803573ffffffffffffffffffffffffffffffffffffffff169060200190929190505050610a4b565b604051808215151515815260200191505060405180910390f35b61025b610aa4565b005b610265610c83565b6040518082815260200191505060405180910390f35b610283610d28565b6040518082815260200191505060405180910390f35b6102c5600480360360208110156102af57600080fd5b8101908080359060200190929190505050610d35565b6040518080602001828103825283818151815260200191508051906020019080838360005b838110156103055780820151818401526020810190506102ea565b50505050905090810190601f1680156103325780820380516001836020036101000a031916815260200191505b509250505060405180910390f35b6103f96004803603602081101561035657600080fd5b810190808035906020019064010000000081111561037357600080fd5b82018360208201111561038557600080fd5b803590602001918460018302840111640100000000831117156103a757600080fd5b91908080601f016020809104026020016040519081016040528093929190818152602001838380828437600081840152601f19601f820116905080830192505050505050509192919290505050610df5565b005b610403610fc7565b005b61040d611226565b6040518080602001828103825283818151815260200191508051906020019080838360005b8381101561044d578082015181840152602081019050610432565b50505050905090810190601f16801561047a5780820380516001836020036101000a031916815260200191505b509250505060405180910390f35b6104ca6004803603602081101561049e57600080fd5b81019080803573ffffffffffffffffffffffffffffffffffffffff169060200190929190505050611363565b005b6104d4611649565b604051808260058111156104e457fe5b60ff16815260200191505060405180910390f35b61053a6004803603602081101561050e57600080fd5b81019080803573ffffffffffffffffffffffffffffffffffffffff16906020019092919050505061165c565b604051808415151515815260200183151515158152602001828152602001935050505060405180910390f35b6105a86004803603602081101561057c57600080fd5b81019080803573ffffffffffffffffffffffffffffffffffffffff1690602001909291905050506116a0565b604051808215151515815260200191505060405180910390f35b6105ca6116f9565b6040518082815260200191505060405180910390f35b6105e8611780565b005b6105f2611960565b604051808273ffffffffffffffffffffffffffffffffffffffff1673ffffffffffffffffffffffffffffffffffffffff16815260200191505060405180910390f35b61063c611985565b6040518082600581111561064c57fe5b60ff16815260200191505060405180910390f35b600160003373ffffffffffffffffffffffffffffffffffffffff1673ffffffffffffffffffffffffffffffffffffffff16815260200190815260200160002060000160009054906101000a900460ff16610705576040517f08c379a000000000000000000000000000000000000000000000000000000000815260040180806020018281038252602d815260200180611a41602d913960400191505060405180910390fd5b6003600581111561071257fe5b600060149054906101000a900460ff16600581111561072d57fe5b14610783576040517f08c379a0000000000000000000000000000000000000000000000000000000008152600401808060200182810382526038815260200180611a6e6038913960400191505060405180910390fd5b600160003373ffffffffffffffffffffffffffffffffffffffff1673ffffffffffffffffffffffffffffffffffffffff16815260200190815260200160002060000160019054906101000a900460ff1615610846576040517f08c379a000000000000000000000000000000000000000000000000000000000815260040180806020018281038252601c8152602001807f5468652063616c6c65722068617320616c726561647920766f7465640000000081525060200191505060405180910390fd5b60018060003373ffffffffffffffffffffffffffffffffffffffff1673ffffffffffffffffffffffffffffffffffffffff16815260200190815260200160002060000160016101000a81548160ff02191690831515021790555080600160003373ffffffffffffffffffffffffffffffffffffffff1673ffffffffffffffffffffffffffffffffffffffff168152602001908152602001600020600101819055506001600282815481106108f657fe5b9060005260206000209060020201600101600082825401925050819055507f0902475a854b82199b4f5d6b81327ec4c4ec077ce0356a106ddc2748c5285ed33382604051808373ffffffffffffffffffffffffffffffffffffffff1673ffffffffffffffffffffffffffffffffffffffff1681526020018281526020019250505060405180910390a150565b6002818154811061098f57fe5b9060005260206000209060020201600091509050806000018054600181600116156101000203166002900480601f016020809104026020016040519081016040528092919081815260200182805460018160011615610100020316600290048015610a3b5780601f10610a1057610100808354040283529160200191610a3b565b820191906000526020600020905b815481529060010190602001808311610a1e57829003601f168201915b5050505050908060010154905082565b60008060009054906101000a900473ffffffffffffffffffffffffffffffffffffffff1673ffffffffffffffffffffffffffffffffffffffff168273ffffffffffffffffffffffffffffffffffffffff16149050919050565b6000809054906101000a900473ffffffffffffffffffffffffffffffffffffffff1673ffffffffffffffffffffffffffffffffffffffff163373ffffffffffffffffffffffffffffffffffffffff1614610b49576040517f08c379a0000000000000000000000000000000000000000000000000000000008152600401808060200182810382526035815260200180611add6035913960400191505060405180910390fd5b60006005811115610b5657fe5b600060149054906101000a900460ff166005811115610b7157fe5b14610bc7576040517f08c379a000000000000000000000000000000000000000000000000000000000815260040180806020018281038252604a815260200180611b12604a913960600191505060405180910390fd5b6001600060146101000a81548160ff02191690836005811115610be657fe5b02179055507f65b51a6e225dbda234ac3ca54831842456809aa60205dd84e758670106b4a6f360405160405180910390a17f9474022b1c97b70d3479aafe8672c447d1837ad99ae1f735eced168a65252d1660008060149054906101000a900460ff1660405180836005811115610c5957fe5b60ff168152602001826005811115610c6d57fe5b60ff1681526020019250505060405180910390a1565b6000600580811115610c9157fe5b600060149054906101000a900460ff166005811115610cac57fe5b14610d02576040517f08c379a000000000000000000000000000000000000000000000000000000000815260040180806020018281038252603e815260200180611b5c603e913960400191505060405180910390fd5b600260035481548110610d1157fe5b906000526020600020906002020160010154905090565b6000600280549050905090565b606060028281548110610d4457fe5b90600052602060002090600202016000018054600181600116156101000203166002900480601f016020809104026020016040519081016040528092919081815260200182805460018160011615610100020316600290048015610de95780601f10610dbe57610100808354040283529160200191610de9565b820191906000526020600020905b815481529060010190602001808311610dcc57829003601f168201915b50505050509050919050565b600160003373ffffffffffffffffffffffffffffffffffffffff1673ffffffffffffffffffffffffffffffffffffffff16815260200190815260200160002060000160009054906101000a900460ff16610e9a576040517f08c379a000000000000000000000000000000000000000000000000000000000815260040180806020018281038252602d815260200180611a41602d913960400191505060405180910390fd5b60006005811115610ea757fe5b600060149054906101000a900460ff166005811115610ec257fe5b14610f18576040517f08c379a000000000000000000000000000000000000000000000000000000000815260040180806020018281038252604a815260200180611b12604a913960600191505060405180910390fd5b600260405180604001604052808381526020016000815250908060018154018082558091505090600182039060005260206000209060020201600090919290919091506000820151816000019080519060200190610f7792919061199b565b50602082015181600101555050507fdcd2e8cd237900037efa515c36a3caa6812766647c16535dd5fc3c6fd641154c6001600280549050036040518082815260200191505060405180910390a150565b6000809054906101000a900473ffffffffffffffffffffffffffffffffffffffff1673ffffffffffffffffffffffffffffffffffffffff163373ffffffffffffffffffffffffffffffffffffffff161461106c576040517f08c379a0000000000000000000000000000000000000000000000000000000008152600401808060200182810382526035815260200180611add6035913960400191505060405180910390fd5b6004600581111561107957fe5b600060149054906101000a900460ff16600581111561109457fe5b146110ea576040517f08c379a0000000000000000000000000000000000000000000000000000000008152600401808060200182810382526037815260200180611aa66037913960400191505060405180910390fd5b6000809050600080905060008090505b60028054905081101561115f57826002828154811061111557fe5b9060005260206000209060020201600101541115611152576002818154811061113a57fe5b90600052602060002090600202016001015492508091505b80806001019150506110fa565b50806003819055506005600060146101000a81548160ff0219169083600581111561118657fe5b02179055507fa1f82a14ea162408785ef8969f7cf08b2bb72b081f8d4e2eda49846e52f439c660405160405180910390a17f9474022b1c97b70d3479aafe8672c447d1837ad99ae1f735eced168a65252d166004600060149054906101000a900460ff16604051808360058111156111fa57fe5b60ff16815260200182600581111561120e57fe5b60ff1681526020019250505060405180910390a15050565b606060058081111561123457fe5b600060149054906101000a900460ff16600581111561124f57fe5b146112a5576040517f08c379a000000000000000000000000000000000000000000000000000000000815260040180806020018281038252603e815260200180611b5c603e913960400191505060405180910390fd5b6002600354815481106112b457fe5b90600052602060002090600202016000018054600181600116156101000203166002900480601f0160208091040260200160405190810160405280929190818152602001828054600181600116156101000203166002900480156113595780601f1061132e57610100808354040283529160200191611359565b820191906000526020600020905b81548152906001019060200180831161133c57829003601f168201915b5050505050905090565b6000809054906101000a900473ffffffffffffffffffffffffffffffffffffffff1673ffffffffffffffffffffffffffffffffffffffff163373ffffffffffffffffffffffffffffffffffffffff1614611408576040517f08c379a0000000000000000000000000000000000000000000000000000000008152600401808060200182810382526035815260200180611add6035913960400191505060405180910390fd5b6000600581111561141557fe5b600060149054906101000a900460ff16600581111561143057fe5b14611486576040517f08c379a000000000000000000000000000000000000000000000000000000000815260040180806020018281038252604a815260200180611b12604a913960600191505060405180910390fd5b600160008273ffffffffffffffffffffffffffffffffffffffff1673ffffffffffffffffffffffffffffffffffffffff16815260200190815260200160002060000160009054906101000a900460ff1615611549576040517f08c379a000000000000000000000000000000000000000000000000000000000815260040180806020018281038252601f8152602001807f54686520766f74657220697320616c726561647920726567697374657265640081525060200191505060405180910390fd5b60018060008373ffffffffffffffffffffffffffffffffffffffff1673ffffffffffffffffffffffffffffffffffffffff16815260200190815260200160002060000160006101000a81548160ff0219169083151502179055506000600160008373ffffffffffffffffffffffffffffffffffffffff1673ffffffffffffffffffffffffffffffffffffffff16815260200190815260200160002060000160016101000a81548160ff0219169083151502179055506000600160008373ffffffffffffffffffffffffffffffffffffffff1673ffffffffffffffffffffffffffffffffffffffff1681526020019081526020016000206001018190555050565b600060149054906101000a900460ff1681565b60016020528060005260406000206000915090508060000160009054906101000a900460ff16908060000160019054906101000a900460ff16908060010154905083565b6000600160008373ffffffffffffffffffffffffffffffffffffffff1673ffffffffffffffffffffffffffffffffffffffff16815260200190815260200160002060000160009054906101000a900460ff169050919050565b600060058081111561170757fe5b600060149054906101000a900460ff16600581111561172257fe5b14611778576040517f08c379a000000000000000000000000000000000000000000000000000000000815260040180806020018281038252603e815260200180611b5c603e913960400191505060405180910390fd5b600354905090565b6000809054906101000a900473ffffffffffffffffffffffffffffffffffffffff1673ffffffffffffffffffffffffffffffffffffffff163373ffffffffffffffffffffffffffffffffffffffff1614611825576040517f08c379a0000000000000000000000000000000000000000000000000000000008152600401808060200182810382526035815260200180611add6035913960400191505060405180910390fd5b6000600581111561183257fe5b600060149054906101000a900460ff16600581111561184d57fe5b146118a3576040517f08c379a000000000000000000000000000000000000000000000000000000000815260040180806020018281038252604a815260200180611b12604a913960600191505060405180910390fd5b6002600060146101000a81548160ff021916908360058111156118c257fe5b02179055507ff629233eb3546085ffcbbb79c947a38b98b14a6915bcc004a0c1a34ae38c29d860405160405180910390a17f9474022b1c97b70d3479aafe8672c447d1837ad99ae1f735eced168a65252d166001600060149054906101000a900460ff166040518083600581111561193657fe5b60ff16815260200182600581111561194a57fe5b60ff1681526020019250505060405180910390a1565b6000809054906101000a900473ffffffffffffffffffffffffffffffffffffffff1681565b60008060149054906101000a900460ff16905090565b828054600181600116156101000203166002900490600052602060002090601f016020900481019282601f106119dc57805160ff1916838001178555611a0a565b82800160010185558215611a0a579182015b82811115611a095782518255916020019190600101906119ee565b5b509050611a179190611a1b565b5090565b611a3d91905b80821115611a39576000816000905550600101611a21565b5090565b9056fe7468652063616c6c6572206f6620746869732066756e6374696f6e206d7573742062652074686520766f746572746869732066756e6374696f6e2063616e2062652063616c6c6564206f6e6c7920647572696e672074686520766f74652073657373696f6e746869732066756e6374696f6e2063616e2062652063616c6c6564206f6e6c792061667465722074686520766f74652073657373696f6e7468652063616c6c6572206f6620746869732066756e6374696f6e206d757374206265207468652061646d696e6973747261746f72746869732066756e6374696f6e2063616e2062652063616c6c6564206f6e6c79206265666f72652070726f706f73616c7320726567697374726174696f6e206861732073746172746564746869732066756e6374696f6e2063616e2062652063616c6c6564206f6e6c7920616674657220766f7465732068617665206265656e2074616c6c696564a265627a7a7231582092840a5907f2bdb065cd6cb456c53acaa6864f17d2c3751b629bf6b03b402c9a64736f6c63430005100032",
  "source": "// SPDX-License-Identifier: MIT\npragma solidity >=0.4.22 <0.9.0;\n\ncontract SimpleVoting {\n    struct Voter {\n        bool isRegistered;\n        bool hasVoted;\n        uint256 votedProposalId;\n    }\n\n    struct Proposal {\n        string description;\n        uint256 voteCount;\n    }\n\n    enum WorkflowStatus {\n        RegisteringVoters,\n        ProposalsRegistrationStarted,\n        ProposalsRegistrationEnded,\n        VotingSessionStarted,\n        VotingSessionEnded,\n        VotesTallied\n    }\n\n    address public administrator;\n\n    WorkflowStatus public workflowStatus;\n    mapping(address => Voter) public voters;\n    Proposal[] public proposals;\n\n    uint256 private winningProposalId;\n\n    modifier onlyAdministrator() {\n        require(\n            msg.sender == administrator,\n            \"the caller of this function must be the administrator\"\n        );\n        _;\n    }\n\n    modifier onlyRegisteredVoter() {\n        require(\n            voters[msg.sender].isRegistered,\n            \"the caller of this function must be the voter\"\n        );\n        _;\n    }\n\n    modifier onlyDuringVotersRegistration() {\n        require(\n            workflowStatus == WorkflowStatus.RegisteringVoters,\n            \"this function can be called only before proposals registration has started\"\n        );\n        _;\n    }\n\n    modifier onlyDuringProposalRegistration() {\n        require(\n            workflowStatus == WorkflowStatus.ProposalsRegistrationStarted,\n            \"this function can be called only during proposlas registration\"\n        );\n        _;\n    }\n\n    modifier onlyAfterProposalRegistration() {\n        require(\n            workflowStatus == WorkflowStatus.ProposalsRegistrationEnded,\n            \"this function can be called only after proposlas registration\"\n        );\n        _;\n    }\n\n    modifier onlyDuringVotingSession() {\n        require(\n            workflowStatus == WorkflowStatus.VotingSessionStarted,\n            \"this function can be called only during the vote session\"\n        );\n        _;\n    }\n\n    modifier onlyAfterVotingSession() {\n        require(\n            workflowStatus == WorkflowStatus.VotingSessionEnded,\n            \"this function can be called only after the vote session\"\n        );\n        _;\n    }\n\n    modifier onlyAfterVotesTallied() {\n        require(\n            workflowStatus == WorkflowStatus.VotesTallied,\n            \"this function can be called only after votes have been tallied\"\n        );\n        _;\n    }\n\n    event VoterRegisteredEvent(address voterAddress);\n    event ProposalsRegistrationStartedEvent();\n    event ProposalsRegistrationEndedEvent();\n    event ProposalRegisteredEvent(uint256 proposalId);\n    event VotingSessionStartedEvent();\n    event VotingSessionEndedEvent();\n    event VotedEvent(address voter, uint256 proposalId);\n    event VotesTalliedEvent();\n\n    event WorkflowStatusChangeEvent(\n        WorkflowStatus previousStatus,\n        WorkflowStatus newStatus\n    );\n\n    constructor() public {\n        administrator = msg.sender;\n        workflowStatus = WorkflowStatus.RegisteringVoters;\n    }\n\n    function registerVoter(address _voterAddress)\n        public\n        onlyAdministrator\n        onlyDuringVotersRegistration\n    {\n        require(\n            !voters[_voterAddress].isRegistered,\n            \"The voter is already registered\"\n        );\n\n        voters[_voterAddress].isRegistered = true;\n        voters[_voterAddress].hasVoted = false;\n        voters[_voterAddress].votedProposalId = 0;\n    }\n\n    function startProposalRegistration()\n        public\n        onlyAdministrator\n        onlyDuringVotersRegistration\n    {\n        workflowStatus = WorkflowStatus.ProposalsRegistrationStarted;\n\n        emit ProposalsRegistrationStartedEvent();\n        emit WorkflowStatusChangeEvent(\n            WorkflowStatus.RegisteringVoters,\n            workflowStatus\n        );\n    }\n\n    function endProposalRegistration()\n        public\n        onlyAdministrator\n        onlyDuringVotersRegistration\n    {\n        workflowStatus = WorkflowStatus.ProposalsRegistrationEnded;\n\n        emit ProposalsRegistrationEndedEvent();\n        emit WorkflowStatusChangeEvent(\n            WorkflowStatus.ProposalsRegistrationStarted,\n            workflowStatus\n        );\n    }\n\n    function registerProposal(string memory proposalDescription)\n        public\n        onlyRegisteredVoter\n        onlyDuringVotersRegistration\n    {\n        proposals.push(\n            Proposal({description: proposalDescription, voteCount: 0})\n        );\n\n        emit ProposalRegisteredEvent(proposals.length - 1);\n    }\n\n    function vote(uint256 proposalId)\n        public\n        onlyRegisteredVoter\n        onlyDuringVotingSession\n    {\n        require(!voters[msg.sender].hasVoted, \"The caller has already voted\");\n\n        voters[msg.sender].hasVoted = true;\n        voters[msg.sender].votedProposalId = proposalId;\n\n        proposals[proposalId].voteCount += 1;\n\n        emit VotedEvent(msg.sender, proposalId);\n    }\n\n    function tallyVotes() public onlyAdministrator onlyAfterVotingSession {\n        uint256 winningVoteCount = 0;\n        uint256 winningProposalIndex = 0;\n\n        for (uint256 i = 0; i < proposals.length; i++) {\n            if (proposals[i].voteCount > winningVoteCount) {\n                winningVoteCount = proposals[i].voteCount;\n                winningProposalIndex = i;\n            }\n        }\n\n        winningProposalId = winningProposalIndex;\n        workflowStatus = WorkflowStatus.VotesTallied;\n        emit VotesTalliedEvent();\n        emit WorkflowStatusChangeEvent(\n            WorkflowStatus.VotingSessionEnded,\n            workflowStatus\n        );\n    }\n\n    function getProposalNumber() public view returns (uint256) {\n        return proposals.length;\n    }\n\n    function getProposalDescription(uint256 index)\n        public\n        view\n        returns (string memory)\n    {\n        return proposals[index].description;\n    }\n\n    function getWinningProposalId()\n        public\n        view\n        onlyAfterVotesTallied\n        returns (uint256)\n    {\n        return winningProposalId;\n    }\n\n    function getWinningProposalDescription()\n        public\n        view\n        onlyAfterVotesTallied\n        returns (string memory)\n    {\n        return proposals[winningProposalId].description;\n    }\n\n    function getWinningProposalVoteCounts()\n        public\n        view\n        onlyAfterVotesTallied\n        returns (uint256)\n    {\n        return proposals[winningProposalId].voteCount;\n    }\n\n    function isRegisteredVoter(address _voterAddress)\n        public\n        view\n        returns (bool)\n    {\n        return voters[_voterAddress].isRegistered;\n    }\n\n    function isAdministrator(address _address) public view returns (bool) {\n        return _address == administrator;\n    }\n\n    function getWorkflowStatus() public view returns (WorkflowStatus) {\n        return workflowStatus;\n    }\n}\n",
  "sourcePath": "/Users/seonghyeoni/Coding/Personal/SOL_Vote/contracts/SimpleVoting.sol",
  "compiler": {
    "name": "solc",
    "version": "0.5.16+commit.9c3226ce.Emscripten.clang"
  },
  "schemaVersion": "3.4.1",
  "updatedAt": "2021-09-29T02:55:51.056Z",
  "devdoc": {
    "methods": {}
  },
  "userdoc": {
    "methods": {}
  }
}